{
	"data": {
		"bytecode": {
			"linkReferences": {},
			"object": "608060405234801561001057600080fd5b5060008081905550610a2a806100276000396000f3fe608060405234801561001057600080fd5b50600436106100575760003560e01c8063166dec531461005c5780633b51fa991461008c57806375aac69e146100aa578063830fb67c146100db578063fa94904d1461010b575b600080fd5b610076600480360381019061007191906104e0565b61013b565b604051610083919061053e565b60405180910390f35b6100946101c6565b6040516100a19190610582565b60405180910390f35b6100c460048036038101906100bf91906104e0565b6101cf565b6040516100d2929190610559565b60405180910390f35b6100f560048036038101906100f091906104e0565b610288565b604051610102919061053e565b60405180910390f35b610125600480360381019061012091906104e0565b61030a565b604051610132919061053e565b60405180910390f35b6000610150838361014b90610931565b61038c565b61015957600080fd5b60008081548092919061016b906108e8565b91905055507f083241c70c55723c2afed71c62d19471210dfc31706214625ed18add09661b9b828461019d919061080c565b6040516101aa919061053e565b60405180910390a181836101be919061080c565b905092915050565b60008054905090565b6000806101dc84846103ff565b6101e557600080fd5b6000808154809291906101f7906108e8565b91905055506000838561020a9190610631565b9050600080600061021c88888661040d565b9250925092506000818361023091906107b2565b8461023b91906108a0565b90507f10a9766a3a571bd8e71a0c7d4142dbd18f258846048a3549d39b930a6137e577858260405161026e929190610559565b60405180910390a184819650965050505050509250929050565b6000610294838361038c565b61029d57600080fd5b6000808154809291906102af906108e8565b91905055507f083241c70c55723c2afed71c62d19471210dfc31706214625ed18add09661b9b82846102e1919061059d565b6040516102ee919061053e565b60405180910390a18183610302919061059d565b905092915050565b60006103168383610485565b61031f57600080fd5b600080815480929190610331906108e8565b91905055507f083241c70c55723c2afed71c62d19471210dfc31706214625ed18add09661b9b8284610363919061069b565b604051610370919061053e565b60405180910390a18183610384919061069b565b905092915050565b600080828461039b919061059d565b90506000841380156103ad5750600083135b80156103b95750600081125b156103c85760009150506103f9565b6000841280156103d85750600083125b80156103e45750600081135b156103f35760009150506103f9565b60019150505b92915050565b600080821415905092915050565b600080600080600080600089131561042757889250610434565b8861043190610931565b92505b600088131561044557879150610452565b8761044f90610931565b91505b600087131561046357869050610470565b8661046d90610931565b90505b82828295509550955050505093509350939050565b6000808314806104955750600082145b156104a357600190506104c5565b600082846104b1919061069b565b905082816104bf9190610631565b84149150505b92915050565b6000813590506104da816109dd565b92915050565b600080604083850312156104f7576104f66109d8565b5b6000610505858286016104cb565b9250506020610516858286016104cb565b9150509250929050565b610529816108d4565b82525050565b610538816108de565b82525050565b60006020820190506105536000830184610520565b92915050565b600060408201905061056e6000830185610520565b61057b602083018461052f565b9392505050565b6000602082019050610597600083018461052f565b92915050565b60006105a8826108d4565b91506105b3836108d4565b9250817f7fffffffffffffffffffffffffffffffffffffffffffffffffffffffffffffff038313600083121516156105ee576105ed61097a565b5b817f80000000000000000000000000000000000000000000000000000000000000000383126000831216156106265761062561097a565b5b828201905092915050565b600061063c826108d4565b9150610647836108d4565b925082610657576106566109a9565b5b600160000383147f8000000000000000000000000000000000000000000000000000000000000000831416156106905761068f61097a565b5b828205905092915050565b60006106a6826108d4565b91506106b1836108d4565b9250827f7fffffffffffffffffffffffffffffffffffffffffffffffffffffffffffffff04821160008413600084131616156106f0576106ef61097a565b5b817f8000000000000000000000000000000000000000000000000000000000000000058312600084126000841316161561072d5761072c61097a565b5b827f8000000000000000000000000000000000000000000000000000000000000000058212600084136000841216161561076a5761076961097a565b5b827f7fffffffffffffffffffffffffffffffffffffffffffffffffffffffffffffff05821260008412600084121616156107a7576107a661097a565b5b828202905092915050565b60006107bd826108de565b91506107c8836108de565b9250817fffffffffffffffffffffffffffffffffffffffffffffffffffffffffffffffff04831182151516156108015761080061097a565b5b828202905092915050565b6000610817826108d4565b9150610822836108d4565b9250827f80000000000000000000000000000000000000000000000000000000000000000182126000841215161561085d5761085c61097a565b5b827f7fffffffffffffffffffffffffffffffffffffffffffffffffffffffffffffff0182136000841216156108955761089461097a565b5b828203905092915050565b60006108ab826108de565b91506108b6836108de565b9250828210156108c9576108c861097a565b5b828203905092915050565b6000819050919050565b6000819050919050565b60006108f3826108de565b91507fffffffffffffffffffffffffffffffffffffffffffffffffffffffffffffffff8214156109265761092561097a565b5b600182019050919050565b600061093c826108d4565b91507f800000000000000000000000000000000000000000000000000000000000000082141561096f5761096e61097a565b5b816000039050919050565b7f4e487b7100000000000000000000000000000000000000000000000000000000600052601160045260246000fd5b7f4e487b7100000000000000000000000000000000000000000000000000000000600052601260045260246000fd5b600080fd5b6109e6816108d4565b81146109f157600080fd5b5056fea2646970667358221220bdbd2e3cf2e27a5d344cfe3d5246e87d24a8e133ea5547da7bd1ae6e7a9bff9164736f6c63430008070033",
			"opcodes": "PUSH1 0x80 PUSH1 0x40 MSTORE CALLVALUE DUP1 ISZERO PUSH2 0x10 JUMPI PUSH1 0x0 DUP1 REVERT JUMPDEST POP PUSH1 0x0 DUP1 DUP2 SWAP1 SSTORE POP PUSH2 0xA2A DUP1 PUSH2 0x27 PUSH1 0x0 CODECOPY PUSH1 0x0 RETURN INVALID PUSH1 0x80 PUSH1 0x40 MSTORE CALLVALUE DUP1 ISZERO PUSH2 0x10 JUMPI PUSH1 0x0 DUP1 REVERT JUMPDEST POP PUSH1 0x4 CALLDATASIZE LT PUSH2 0x57 JUMPI PUSH1 0x0 CALLDATALOAD PUSH1 0xE0 SHR DUP1 PUSH4 0x166DEC53 EQ PUSH2 0x5C JUMPI DUP1 PUSH4 0x3B51FA99 EQ PUSH2 0x8C JUMPI DUP1 PUSH4 0x75AAC69E EQ PUSH2 0xAA JUMPI DUP1 PUSH4 0x830FB67C EQ PUSH2 0xDB JUMPI DUP1 PUSH4 0xFA94904D EQ PUSH2 0x10B JUMPI JUMPDEST PUSH1 0x0 DUP1 REVERT JUMPDEST PUSH2 0x76 PUSH1 0x4 DUP1 CALLDATASIZE SUB DUP2 ADD SWAP1 PUSH2 0x71 SWAP2 SWAP1 PUSH2 0x4E0 JUMP JUMPDEST PUSH2 0x13B JUMP JUMPDEST PUSH1 0x40 MLOAD PUSH2 0x83 SWAP2 SWAP1 PUSH2 0x53E JUMP JUMPDEST PUSH1 0x40 MLOAD DUP1 SWAP2 SUB SWAP1 RETURN JUMPDEST PUSH2 0x94 PUSH2 0x1C6 JUMP JUMPDEST PUSH1 0x40 MLOAD PUSH2 0xA1 SWAP2 SWAP1 PUSH2 0x582 JUMP JUMPDEST PUSH1 0x40 MLOAD DUP1 SWAP2 SUB SWAP1 RETURN JUMPDEST PUSH2 0xC4 PUSH1 0x4 DUP1 CALLDATASIZE SUB DUP2 ADD SWAP1 PUSH2 0xBF SWAP2 SWAP1 PUSH2 0x4E0 JUMP JUMPDEST PUSH2 0x1CF JUMP JUMPDEST PUSH1 0x40 MLOAD PUSH2 0xD2 SWAP3 SWAP2 SWAP1 PUSH2 0x559 JUMP JUMPDEST PUSH1 0x40 MLOAD DUP1 SWAP2 SUB SWAP1 RETURN JUMPDEST PUSH2 0xF5 PUSH1 0x4 DUP1 CALLDATASIZE SUB DUP2 ADD SWAP1 PUSH2 0xF0 SWAP2 SWAP1 PUSH2 0x4E0 JUMP JUMPDEST PUSH2 0x288 JUMP JUMPDEST PUSH1 0x40 MLOAD PUSH2 0x102 SWAP2 SWAP1 PUSH2 0x53E JUMP JUMPDEST PUSH1 0x40 MLOAD DUP1 SWAP2 SUB SWAP1 RETURN JUMPDEST PUSH2 0x125 PUSH1 0x4 DUP1 CALLDATASIZE SUB DUP2 ADD SWAP1 PUSH2 0x120 SWAP2 SWAP1 PUSH2 0x4E0 JUMP JUMPDEST PUSH2 0x30A JUMP JUMPDEST PUSH1 0x40 MLOAD PUSH2 0x132 SWAP2 SWAP1 PUSH2 0x53E JUMP JUMPDEST PUSH1 0x40 MLOAD DUP1 SWAP2 SUB SWAP1 RETURN JUMPDEST PUSH1 0x0 PUSH2 0x150 DUP4 DUP4 PUSH2 0x14B SWAP1 PUSH2 0x931 JUMP JUMPDEST PUSH2 0x38C JUMP JUMPDEST PUSH2 0x159 JUMPI PUSH1 0x0 DUP1 REVERT JUMPDEST PUSH1 0x0 DUP1 DUP2 SLOAD DUP1 SWAP3 SWAP2 SWAP1 PUSH2 0x16B SWAP1 PUSH2 0x8E8 JUMP JUMPDEST SWAP2 SWAP1 POP SSTORE POP PUSH32 0x83241C70C55723C2AFED71C62D19471210DFC31706214625ED18ADD09661B9B DUP3 DUP5 PUSH2 0x19D SWAP2 SWAP1 PUSH2 0x80C JUMP JUMPDEST PUSH1 0x40 MLOAD PUSH2 0x1AA SWAP2 SWAP1 PUSH2 0x53E JUMP JUMPDEST PUSH1 0x40 MLOAD DUP1 SWAP2 SUB SWAP1 LOG1 DUP2 DUP4 PUSH2 0x1BE SWAP2 SWAP1 PUSH2 0x80C JUMP JUMPDEST SWAP1 POP SWAP3 SWAP2 POP POP JUMP JUMPDEST PUSH1 0x0 DUP1 SLOAD SWAP1 POP SWAP1 JUMP JUMPDEST PUSH1 0x0 DUP1 PUSH2 0x1DC DUP5 DUP5 PUSH2 0x3FF JUMP JUMPDEST PUSH2 0x1E5 JUMPI PUSH1 0x0 DUP1 REVERT JUMPDEST PUSH1 0x0 DUP1 DUP2 SLOAD DUP1 SWAP3 SWAP2 SWAP1 PUSH2 0x1F7 SWAP1 PUSH2 0x8E8 JUMP JUMPDEST SWAP2 SWAP1 POP SSTORE POP PUSH1 0x0 DUP4 DUP6 PUSH2 0x20A SWAP2 SWAP1 PUSH2 0x631 JUMP JUMPDEST SWAP1 POP PUSH1 0x0 DUP1 PUSH1 0x0 PUSH2 0x21C DUP9 DUP9 DUP7 PUSH2 0x40D JUMP JUMPDEST SWAP3 POP SWAP3 POP SWAP3 POP PUSH1 0x0 DUP2 DUP4 PUSH2 0x230 SWAP2 SWAP1 PUSH2 0x7B2 JUMP JUMPDEST DUP5 PUSH2 0x23B SWAP2 SWAP1 PUSH2 0x8A0 JUMP JUMPDEST SWAP1 POP PUSH32 0x10A9766A3A571BD8E71A0C7D4142DBD18F258846048A3549D39B930A6137E577 DUP6 DUP3 PUSH1 0x40 MLOAD PUSH2 0x26E SWAP3 SWAP2 SWAP1 PUSH2 0x559 JUMP JUMPDEST PUSH1 0x40 MLOAD DUP1 SWAP2 SUB SWAP1 LOG1 DUP5 DUP2 SWAP7 POP SWAP7 POP POP POP POP POP POP SWAP3 POP SWAP3 SWAP1 POP JUMP JUMPDEST PUSH1 0x0 PUSH2 0x294 DUP4 DUP4 PUSH2 0x38C JUMP JUMPDEST PUSH2 0x29D JUMPI PUSH1 0x0 DUP1 REVERT JUMPDEST PUSH1 0x0 DUP1 DUP2 SLOAD DUP1 SWAP3 SWAP2 SWAP1 PUSH2 0x2AF SWAP1 PUSH2 0x8E8 JUMP JUMPDEST SWAP2 SWAP1 POP SSTORE POP PUSH32 0x83241C70C55723C2AFED71C62D19471210DFC31706214625ED18ADD09661B9B DUP3 DUP5 PUSH2 0x2E1 SWAP2 SWAP1 PUSH2 0x59D JUMP JUMPDEST PUSH1 0x40 MLOAD PUSH2 0x2EE SWAP2 SWAP1 PUSH2 0x53E JUMP JUMPDEST PUSH1 0x40 MLOAD DUP1 SWAP2 SUB SWAP1 LOG1 DUP2 DUP4 PUSH2 0x302 SWAP2 SWAP1 PUSH2 0x59D JUMP JUMPDEST SWAP1 POP SWAP3 SWAP2 POP POP JUMP JUMPDEST PUSH1 0x0 PUSH2 0x316 DUP4 DUP4 PUSH2 0x485 JUMP JUMPDEST PUSH2 0x31F JUMPI PUSH1 0x0 DUP1 REVERT JUMPDEST PUSH1 0x0 DUP1 DUP2 SLOAD DUP1 SWAP3 SWAP2 SWAP1 PUSH2 0x331 SWAP1 PUSH2 0x8E8 JUMP JUMPDEST SWAP2 SWAP1 POP SSTORE POP PUSH32 0x83241C70C55723C2AFED71C62D19471210DFC31706214625ED18ADD09661B9B DUP3 DUP5 PUSH2 0x363 SWAP2 SWAP1 PUSH2 0x69B JUMP JUMPDEST PUSH1 0x40 MLOAD PUSH2 0x370 SWAP2 SWAP1 PUSH2 0x53E JUMP JUMPDEST PUSH1 0x40 MLOAD DUP1 SWAP2 SUB SWAP1 LOG1 DUP2 DUP4 PUSH2 0x384 SWAP2 SWAP1 PUSH2 0x69B JUMP JUMPDEST SWAP1 POP SWAP3 SWAP2 POP POP JUMP JUMPDEST PUSH1 0x0 DUP1 DUP3 DUP5 PUSH2 0x39B SWAP2 SWAP1 PUSH2 0x59D JUMP JUMPDEST SWAP1 POP PUSH1 0x0 DUP5 SGT DUP1 ISZERO PUSH2 0x3AD JUMPI POP PUSH1 0x0 DUP4 SGT JUMPDEST DUP1 ISZERO PUSH2 0x3B9 JUMPI POP PUSH1 0x0 DUP2 SLT JUMPDEST ISZERO PUSH2 0x3C8 JUMPI PUSH1 0x0 SWAP2 POP POP PUSH2 0x3F9 JUMP JUMPDEST PUSH1 0x0 DUP5 SLT DUP1 ISZERO PUSH2 0x3D8 JUMPI POP PUSH1 0x0 DUP4 SLT JUMPDEST DUP1 ISZERO PUSH2 0x3E4 JUMPI POP PUSH1 0x0 DUP2 SGT JUMPDEST ISZERO PUSH2 0x3F3 JUMPI PUSH1 0x0 SWAP2 POP POP PUSH2 0x3F9 JUMP JUMPDEST PUSH1 0x1 SWAP2 POP POP JUMPDEST SWAP3 SWAP2 POP POP JUMP JUMPDEST PUSH1 0x0 DUP1 DUP3 EQ ISZERO SWAP1 POP SWAP3 SWAP2 POP POP JUMP JUMPDEST PUSH1 0x0 DUP1 PUSH1 0x0 DUP1 PUSH1 0x0 DUP1 PUSH1 0x0 DUP10 SGT ISZERO PUSH2 0x427 JUMPI DUP9 SWAP3 POP PUSH2 0x434 JUMP JUMPDEST DUP9 PUSH2 0x431 SWAP1 PUSH2 0x931 JUMP JUMPDEST SWAP3 POP JUMPDEST PUSH1 0x0 DUP9 SGT ISZERO PUSH2 0x445 JUMPI DUP8 SWAP2 POP PUSH2 0x452 JUMP JUMPDEST DUP8 PUSH2 0x44F SWAP1 PUSH2 0x931 JUMP JUMPDEST SWAP2 POP JUMPDEST PUSH1 0x0 DUP8 SGT ISZERO PUSH2 0x463 JUMPI DUP7 SWAP1 POP PUSH2 0x470 JUMP JUMPDEST DUP7 PUSH2 0x46D SWAP1 PUSH2 0x931 JUMP JUMPDEST SWAP1 POP JUMPDEST DUP3 DUP3 DUP3 SWAP6 POP SWAP6 POP SWAP6 POP POP POP POP SWAP4 POP SWAP4 POP SWAP4 SWAP1 POP JUMP JUMPDEST PUSH1 0x0 DUP1 DUP4 EQ DUP1 PUSH2 0x495 JUMPI POP PUSH1 0x0 DUP3 EQ JUMPDEST ISZERO PUSH2 0x4A3 JUMPI PUSH1 0x1 SWAP1 POP PUSH2 0x4C5 JUMP JUMPDEST PUSH1 0x0 DUP3 DUP5 PUSH2 0x4B1 SWAP2 SWAP1 PUSH2 0x69B JUMP JUMPDEST SWAP1 POP DUP3 DUP2 PUSH2 0x4BF SWAP2 SWAP1 PUSH2 0x631 JUMP JUMPDEST DUP5 EQ SWAP2 POP POP JUMPDEST SWAP3 SWAP2 POP POP JUMP JUMPDEST PUSH1 0x0 DUP2 CALLDATALOAD SWAP1 POP PUSH2 0x4DA DUP2 PUSH2 0x9DD JUMP JUMPDEST SWAP3 SWAP2 POP POP JUMP JUMPDEST PUSH1 0x0 DUP1 PUSH1 0x40 DUP4 DUP6 SUB SLT ISZERO PUSH2 0x4F7 JUMPI PUSH2 0x4F6 PUSH2 0x9D8 JUMP JUMPDEST JUMPDEST PUSH1 0x0 PUSH2 0x505 DUP6 DUP3 DUP7 ADD PUSH2 0x4CB JUMP JUMPDEST SWAP3 POP POP PUSH1 0x20 PUSH2 0x516 DUP6 DUP3 DUP7 ADD PUSH2 0x4CB JUMP JUMPDEST SWAP2 POP POP SWAP3 POP SWAP3 SWAP1 POP JUMP JUMPDEST PUSH2 0x529 DUP2 PUSH2 0x8D4 JUMP JUMPDEST DUP3 MSTORE POP POP JUMP JUMPDEST PUSH2 0x538 DUP2 PUSH2 0x8DE JUMP JUMPDEST DUP3 MSTORE POP POP JUMP JUMPDEST PUSH1 0x0 PUSH1 0x20 DUP3 ADD SWAP1 POP PUSH2 0x553 PUSH1 0x0 DUP4 ADD DUP5 PUSH2 0x520 JUMP JUMPDEST SWAP3 SWAP2 POP POP JUMP JUMPDEST PUSH1 0x0 PUSH1 0x40 DUP3 ADD SWAP1 POP PUSH2 0x56E PUSH1 0x0 DUP4 ADD DUP6 PUSH2 0x520 JUMP JUMPDEST PUSH2 0x57B PUSH1 0x20 DUP4 ADD DUP5 PUSH2 0x52F JUMP JUMPDEST SWAP4 SWAP3 POP POP POP JUMP JUMPDEST PUSH1 0x0 PUSH1 0x20 DUP3 ADD SWAP1 POP PUSH2 0x597 PUSH1 0x0 DUP4 ADD DUP5 PUSH2 0x52F JUMP JUMPDEST SWAP3 SWAP2 POP POP JUMP JUMPDEST PUSH1 0x0 PUSH2 0x5A8 DUP3 PUSH2 0x8D4 JUMP JUMPDEST SWAP2 POP PUSH2 0x5B3 DUP4 PUSH2 0x8D4 JUMP JUMPDEST SWAP3 POP DUP2 PUSH32 0x7FFFFFFFFFFFFFFFFFFFFFFFFFFFFFFFFFFFFFFFFFFFFFFFFFFFFFFFFFFFFFFF SUB DUP4 SGT PUSH1 0x0 DUP4 SLT ISZERO AND ISZERO PUSH2 0x5EE JUMPI PUSH2 0x5ED PUSH2 0x97A JUMP JUMPDEST JUMPDEST DUP2 PUSH32 0x8000000000000000000000000000000000000000000000000000000000000000 SUB DUP4 SLT PUSH1 0x0 DUP4 SLT AND ISZERO PUSH2 0x626 JUMPI PUSH2 0x625 PUSH2 0x97A JUMP JUMPDEST JUMPDEST DUP3 DUP3 ADD SWAP1 POP SWAP3 SWAP2 POP POP JUMP JUMPDEST PUSH1 0x0 PUSH2 0x63C DUP3 PUSH2 0x8D4 JUMP JUMPDEST SWAP2 POP PUSH2 0x647 DUP4 PUSH2 0x8D4 JUMP JUMPDEST SWAP3 POP DUP3 PUSH2 0x657 JUMPI PUSH2 0x656 PUSH2 0x9A9 JUMP JUMPDEST JUMPDEST PUSH1 0x1 PUSH1 0x0 SUB DUP4 EQ PUSH32 0x8000000000000000000000000000000000000000000000000000000000000000 DUP4 EQ AND ISZERO PUSH2 0x690 JUMPI PUSH2 0x68F PUSH2 0x97A JUMP JUMPDEST JUMPDEST DUP3 DUP3 SDIV SWAP1 POP SWAP3 SWAP2 POP POP JUMP JUMPDEST PUSH1 0x0 PUSH2 0x6A6 DUP3 PUSH2 0x8D4 JUMP JUMPDEST SWAP2 POP PUSH2 0x6B1 DUP4 PUSH2 0x8D4 JUMP JUMPDEST SWAP3 POP DUP3 PUSH32 0x7FFFFFFFFFFFFFFFFFFFFFFFFFFFFFFFFFFFFFFFFFFFFFFFFFFFFFFFFFFFFFFF DIV DUP3 GT PUSH1 0x0 DUP5 SGT PUSH1 0x0 DUP5 SGT AND AND ISZERO PUSH2 0x6F0 JUMPI PUSH2 0x6EF PUSH2 0x97A JUMP JUMPDEST JUMPDEST DUP2 PUSH32 0x8000000000000000000000000000000000000000000000000000000000000000 SDIV DUP4 SLT PUSH1 0x0 DUP5 SLT PUSH1 0x0 DUP5 SGT AND AND ISZERO PUSH2 0x72D JUMPI PUSH2 0x72C PUSH2 0x97A JUMP JUMPDEST JUMPDEST DUP3 PUSH32 0x8000000000000000000000000000000000000000000000000000000000000000 SDIV DUP3 SLT PUSH1 0x0 DUP5 SGT PUSH1 0x0 DUP5 SLT AND AND ISZERO PUSH2 0x76A JUMPI PUSH2 0x769 PUSH2 0x97A JUMP JUMPDEST JUMPDEST DUP3 PUSH32 0x7FFFFFFFFFFFFFFFFFFFFFFFFFFFFFFFFFFFFFFFFFFFFFFFFFFFFFFFFFFFFFFF SDIV DUP3 SLT PUSH1 0x0 DUP5 SLT PUSH1 0x0 DUP5 SLT AND AND ISZERO PUSH2 0x7A7 JUMPI PUSH2 0x7A6 PUSH2 0x97A JUMP JUMPDEST JUMPDEST DUP3 DUP3 MUL SWAP1 POP SWAP3 SWAP2 POP POP JUMP JUMPDEST PUSH1 0x0 PUSH2 0x7BD DUP3 PUSH2 0x8DE JUMP JUMPDEST SWAP2 POP PUSH2 0x7C8 DUP4 PUSH2 0x8DE JUMP JUMPDEST SWAP3 POP DUP2 PUSH32 0xFFFFFFFFFFFFFFFFFFFFFFFFFFFFFFFFFFFFFFFFFFFFFFFFFFFFFFFFFFFFFFFF DIV DUP4 GT DUP3 ISZERO ISZERO AND ISZERO PUSH2 0x801 JUMPI PUSH2 0x800 PUSH2 0x97A JUMP JUMPDEST JUMPDEST DUP3 DUP3 MUL SWAP1 POP SWAP3 SWAP2 POP POP JUMP JUMPDEST PUSH1 0x0 PUSH2 0x817 DUP3 PUSH2 0x8D4 JUMP JUMPDEST SWAP2 POP PUSH2 0x822 DUP4 PUSH2 0x8D4 JUMP JUMPDEST SWAP3 POP DUP3 PUSH32 0x8000000000000000000000000000000000000000000000000000000000000000 ADD DUP3 SLT PUSH1 0x0 DUP5 SLT ISZERO AND ISZERO PUSH2 0x85D JUMPI PUSH2 0x85C PUSH2 0x97A JUMP JUMPDEST JUMPDEST DUP3 PUSH32 0x7FFFFFFFFFFFFFFFFFFFFFFFFFFFFFFFFFFFFFFFFFFFFFFFFFFFFFFFFFFFFFFF ADD DUP3 SGT PUSH1 0x0 DUP5 SLT AND ISZERO PUSH2 0x895 JUMPI PUSH2 0x894 PUSH2 0x97A JUMP JUMPDEST JUMPDEST DUP3 DUP3 SUB SWAP1 POP SWAP3 SWAP2 POP POP JUMP JUMPDEST PUSH1 0x0 PUSH2 0x8AB DUP3 PUSH2 0x8DE JUMP JUMPDEST SWAP2 POP PUSH2 0x8B6 DUP4 PUSH2 0x8DE JUMP JUMPDEST SWAP3 POP DUP3 DUP3 LT ISZERO PUSH2 0x8C9 JUMPI PUSH2 0x8C8 PUSH2 0x97A JUMP JUMPDEST JUMPDEST DUP3 DUP3 SUB SWAP1 POP SWAP3 SWAP2 POP POP JUMP JUMPDEST PUSH1 0x0 DUP2 SWAP1 POP SWAP2 SWAP1 POP JUMP JUMPDEST PUSH1 0x0 DUP2 SWAP1 POP SWAP2 SWAP1 POP JUMP JUMPDEST PUSH1 0x0 PUSH2 0x8F3 DUP3 PUSH2 0x8DE JUMP JUMPDEST SWAP2 POP PUSH32 0xFFFFFFFFFFFFFFFFFFFFFFFFFFFFFFFFFFFFFFFFFFFFFFFFFFFFFFFFFFFFFFFF DUP3 EQ ISZERO PUSH2 0x926 JUMPI PUSH2 0x925 PUSH2 0x97A JUMP JUMPDEST JUMPDEST PUSH1 0x1 DUP3 ADD SWAP1 POP SWAP2 SWAP1 POP JUMP JUMPDEST PUSH1 0x0 PUSH2 0x93C DUP3 PUSH2 0x8D4 JUMP JUMPDEST SWAP2 POP PUSH32 0x8000000000000000000000000000000000000000000000000000000000000000 DUP3 EQ ISZERO PUSH2 0x96F JUMPI PUSH2 0x96E PUSH2 0x97A JUMP JUMPDEST JUMPDEST DUP2 PUSH1 0x0 SUB SWAP1 POP SWAP2 SWAP1 POP JUMP JUMPDEST PUSH32 0x4E487B7100000000000000000000000000000000000000000000000000000000 PUSH1 0x0 MSTORE PUSH1 0x11 PUSH1 0x4 MSTORE PUSH1 0x24 PUSH1 0x0 REVERT JUMPDEST PUSH32 0x4E487B7100000000000000000000000000000000000000000000000000000000 PUSH1 0x0 MSTORE PUSH1 0x12 PUSH1 0x4 MSTORE PUSH1 0x24 PUSH1 0x0 REVERT JUMPDEST PUSH1 0x0 DUP1 REVERT JUMPDEST PUSH2 0x9E6 DUP2 PUSH2 0x8D4 JUMP JUMPDEST DUP2 EQ PUSH2 0x9F1 JUMPI PUSH1 0x0 DUP1 REVERT JUMPDEST POP JUMP INVALID LOG2 PUSH5 0x6970667358 0x22 SLT KECCAK256 0xBD 0xBD 0x2E EXTCODECOPY CALLCODE 0xE2 PUSH27 0x5D344CFE3D5246E87D24A8E133EA5547DA7BD1AE6E7A9BFF916473 PUSH16 0x6C634300080700330000000000000000 "
		},
		"gasEstimates": {
			"creation": {
				"codeDepositCost": "520400",
				"executionCost": "5570",
				"totalCost": "525970"
			},
			"external": {
				"Add(int256,int256)": "infinite",
				"Div(int256,int256)": "infinite",
				"Mul(int256,int256)": "infinite",
				"Sub(int256,int256)": "infinite",
				"getOperationCounter()": "2437"
			},
			"internal": {
				"toPositiveTrio(int256,int256,int256)": "329",
				"validate_div(int256,int256)": "39",
				"validate_mul(int256,int256)": "infinite",
				"validate_sum(int256,int256)": "infinite"
			}
		},
		"methodIdentifiers": {
			"Add(int256,int256)": "830fb67c",
			"Div(int256,int256)": "75aac69e",
			"Mul(int256,int256)": "fa94904d",
			"Sub(int256,int256)": "166dec53",
			"getOperationCounter()": "3b51fa99"
		}
	},
	"abi": [
		{
			"inputs": [],
			"stateMutability": "nonpayable",
			"type": "constructor"
		},
		{
			"anonymous": false,
			"inputs": [
				{
					"indexed": false,
					"internalType": "int256",
					"name": "q",
					"type": "int256"
				},
				{
					"indexed": false,
					"internalType": "uint256",
					"name": "r",
					"type": "uint256"
				}
			],
			"name": "onDuoResult",
			"type": "event"
		},
		{
			"anonymous": false,
			"inputs": [
				{
					"indexed": false,
					"internalType": "int256",
					"name": "result",
					"type": "int256"
				}
			],
			"name": "onSingleResult",
			"type": "event"
		},
		{
			"inputs": [
				{
					"internalType": "int256",
					"name": "x",
					"type": "int256"
				},
				{
					"internalType": "int256",
					"name": "y",
					"type": "int256"
				}
			],
			"name": "Add",
			"outputs": [
				{
					"internalType": "int256",
					"name": "",
					"type": "int256"
				}
			],
			"stateMutability": "nonpayable",
			"type": "function"
		},
		{
			"inputs": [
				{
					"internalType": "int256",
					"name": "x",
					"type": "int256"
				},
				{
					"internalType": "int256",
					"name": "y",
					"type": "int256"
				}
			],
			"name": "Div",
			"outputs": [
				{
					"internalType": "int256",
					"name": "",
					"type": "int256"
				},
				{
					"internalType": "uint256",
					"name": "",
					"type": "uint256"
				}
			],
			"stateMutability": "nonpayable",
			"type": "function"
		},
		{
			"inputs": [
				{
					"internalType": "int256",
					"name": "x",
					"type": "int256"
				},
				{
					"internalType": "int256",
					"name": "y",
					"type": "int256"
				}
			],
			"name": "Mul",
			"outputs": [
				{
					"internalType": "int256",
					"name": "",
					"type": "int256"
				}
			],
			"stateMutability": "nonpayable",
			"type": "function"
		},
		{
			"inputs": [
				{
					"internalType": "int256",
					"name": "x",
					"type": "int256"
				},
				{
					"internalType": "int256",
					"name": "y",
					"type": "int256"
				}
			],
			"name": "Sub",
			"outputs": [
				{
					"internalType": "int256",
					"name": "",
					"type": "int256"
				}
			],
			"stateMutability": "nonpayable",
			"type": "function"
		},
		{
			"inputs": [],
			"name": "getOperationCounter",
			"outputs": [
				{
					"internalType": "uint256",
					"name": "",
					"type": "uint256"
				}
			],
			"stateMutability": "view",
			"type": "function"
		}
	]
}